{
  "contractName": "auction",
  "abi": [
    {
      "constant": true,
      "inputs": [],
      "name": "value",
      "outputs": [
        {
          "name": "",
          "type": "uint256"
        }
      ],
      "payable": false,
      "stateMutability": "view",
      "type": "function"
    },
    {
      "constant": true,
      "inputs": [],
      "name": "lowestBid",
      "outputs": [
        {
          "name": "",
          "type": "uint256"
        }
      ],
      "payable": false,
      "stateMutability": "view",
      "type": "function"
    },
    {
      "constant": true,
      "inputs": [],
      "name": "lowestBidder",
      "outputs": [
        {
          "name": "",
          "type": "address"
        }
      ],
      "payable": false,
      "stateMutability": "view",
      "type": "function"
    },
    {
      "constant": true,
      "inputs": [],
      "name": "bidder",
      "outputs": [
        {
          "name": "",
          "type": "address"
        }
      ],
      "payable": false,
      "stateMutability": "view",
      "type": "function"
    },
    {
      "anonymous": false,
      "inputs": [
        {
          "indexed": false,
          "name": "_bidder",
          "type": "address"
        },
        {
          "indexed": false,
          "name": "_amount",
          "type": "uint256"
        }
      ],
      "name": "lowestBidIncreased",
      "type": "event"
    },
    {
      "anonymous": false,
      "inputs": [
        {
          "indexed": false,
          "name": "_winner",
          "type": "address"
        },
        {
          "indexed": false,
          "name": "_amount",
          "type": "uint256"
        }
      ],
      "name": "AuctionEnded",
      "type": "event"
    },
    {
      "constant": false,
      "inputs": [
        {
          "name": "_value",
          "type": "uint256"
        }
      ],
      "name": "set_value_of_project",
      "outputs": [],
      "payable": false,
      "stateMutability": "nonpayable",
      "type": "function"
    },
    {
      "constant": false,
      "inputs": [
        {
          "name": "_biddingTime",
          "type": "uint256"
        },
        {
          "name": "_bidder",
          "type": "address"
        }
      ],
      "name": "register",
      "outputs": [],
      "payable": false,
      "stateMutability": "nonpayable",
      "type": "function"
    },
    {
      "constant": false,
      "inputs": [],
      "name": "bid",
      "outputs": [],
      "payable": true,
      "stateMutability": "payable",
      "type": "function"
    },
    {
      "constant": false,
      "inputs": [],
      "name": "withdraw",
      "outputs": [
        {
          "name": "",
          "type": "bool"
        }
      ],
      "payable": false,
      "stateMutability": "nonpayable",
      "type": "function"
    },
    {
      "constant": false,
      "inputs": [],
      "name": "auctionEnd",
      "outputs": [],
      "payable": false,
      "stateMutability": "nonpayable",
      "type": "function"
    }
  ],
  "bytecode": "0x608060405234801561001057600080fd5b5061071b806100206000396000f300608060405260043610610099576000357c0100000000000000000000000000000000000000000000000000000000900463ffffffff1680631998aeef1461009e5780631bfc7662146100a85780632a24f46c146100d55780633ccfd60b146100ec5780633fa4f2451461011b578063b6f3d25614610146578063dbbdf08314610171578063e1349333146101be578063f496d88214610215575b600080fd5b6100a661026c565b005b3480156100b457600080fd5b506100d3600480360381019080803590602001909291905050506103d0565b005b3480156100e157600080fd5b506100ea6103da565b005b3480156100f857600080fd5b5061010161051d565b604051808215151515815260200191505060405180910390f35b34801561012757600080fd5b5061013061064b565b6040518082815260200191505060405180910390f35b34801561015257600080fd5b5061015b610651565b6040518082815260200191505060405180910390f35b34801561017d57600080fd5b506101bc60048036038101908080359060200190929190803573ffffffffffffffffffffffffffffffffffffffff169060200190929190505050610657565b005b3480156101ca57600080fd5b506101d36106a4565b604051808273ffffffffffffffffffffffffffffffffffffffff1673ffffffffffffffffffffffffffffffffffffffff16815260200191505060405180910390f35b34801561022157600080fd5b5061022a6106ca565b604051808273ffffffffffffffffffffffffffffffffffffffff1673ffffffffffffffffffffffffffffffffffffffff16815260200191505060405180910390f35b600154421115151561027d57600080fd5b6004543411151561028d57600080fd5b6003543410151561029d57600080fd5b600060035414151561031b5760035460056000600260009054906101000a900473ffffffffffffffffffffffffffffffffffffffff1673ffffffffffffffffffffffffffffffffffffffff1673ffffffffffffffffffffffffffffffffffffffff168152602001908152602001600020600082825401925050819055505b33600260006101000a81548173ffffffffffffffffffffffffffffffffffffffff021916908373ffffffffffffffffffffffffffffffffffffffff160217905550346003819055507f36ee2fe21a279276ba63af58b345d91bc4fd2de8ff21fe421a7a8f89aacb35053334604051808373ffffffffffffffffffffffffffffffffffffffff1673ffffffffffffffffffffffffffffffffffffffff1681526020018281526020019250505060405180910390a1565b8060048190555050565b60015442101515156103eb57600080fd5b600660009054906101000a900460ff1615151561040757600080fd5b6001600660006101000a81548160ff0219169083151502179055507fdaec4582d5d9595688c8c98545fdd1c696d41c6aeaeb636737e84ed2f5c00eda600260009054906101000a900473ffffffffffffffffffffffffffffffffffffffff16600354604051808373ffffffffffffffffffffffffffffffffffffffff1673ffffffffffffffffffffffffffffffffffffffff1681526020018281526020019250505060405180910390a16000809054906101000a900473ffffffffffffffffffffffffffffffffffffffff1673ffffffffffffffffffffffffffffffffffffffff166108fc6003549081150290604051600060405180830381858888f1935050505015801561051a573d6000803e3d6000fd5b50565b600080600560003373ffffffffffffffffffffffffffffffffffffffff1673ffffffffffffffffffffffffffffffffffffffff1681526020019081526020016000205490506000811115610642576000600560003373ffffffffffffffffffffffffffffffffffffffff1673ffffffffffffffffffffffffffffffffffffffff168152602001908152602001600020819055503373ffffffffffffffffffffffffffffffffffffffff166108fc829081150290604051600060405180830381858888f1935050505015156106415780600560003373ffffffffffffffffffffffffffffffffffffffff1673ffffffffffffffffffffffffffffffffffffffff1681526020019081526020016000206000828254019250508190555060009150610647565b5b600191505b5090565b60045481565b60035481565b806000806101000a81548173ffffffffffffffffffffffffffffffffffffffff021916908373ffffffffffffffffffffffffffffffffffffffff1602179055508142016001819055505050565b600260009054906101000a900473ffffffffffffffffffffffffffffffffffffffff1681565b6000809054906101000a900473ffffffffffffffffffffffffffffffffffffffff16815600a165627a7a7230582032fc855eacb86506b2cac166da46bbfa0f22bf643c21a237bc67644dc0b5ccab0029",
  "source": "pragma solidity ^0.4.23;\n\ncontract auction {\n\n\taddress public bidder;\n\tuint256 public auctionEnd;\n\n\t//current winner of the auction\n\taddress public lowestBidder;\n\tuint256 public lowestBid;\n\n\t//minimum cost projection of the project\n\tuint256 public value;\n\n\t//allowed withdrawals of the previous bid \n\t//this is the minimum amount which the bidder is needed to submit\n\t//amount will be returned together with the infrastructure development fund\n\t//given by the central authority\n\tmapping(address => uint) pendingReturn;\n\n\t//auction ende or not\n\tbool ended;\n\n\tevent lowestBidIncreased(address _bidder, uint256 _amount);\n\tevent AuctionEnded(address _winner, uint256 _amount);\n\n\tfunction set_value_of_project(uint256 _value) public {\n\t\tvalue = _value;\n\t}\n\n\tfunction register(uint256 _biddingTime, address _bidder) public {\n\n\t\tbidder = _bidder;\n\t\tauctionEnd = now + _biddingTime;\n\t}\n\n\tfunction bid() public payable {\n\n\t\t//check if auction already ended\n\t\trequire(now <= auctionEnd);\n\n\t\trequire(msg.value > value);\n\n\t\t//check the value send with the bid to the highest bid\n\t\trequire(msg.value < lowestBid);\n\n\t\tif(lowestBid != 0) {\n\n\t\t\tpendingReturn[lowestBidder] += lowestBid;\n\t\t}\n\n\t\tlowestBidder = msg.sender;\n\t\tlowestBid = msg.value;\n\t\temit lowestBidIncreased(msg.sender, msg.value);\n\t}\n\n\t//withdraw a bid\n\tfunction withdraw() public returns (bool) {\n\n\t\tuint256 amount = pendingReturn[msg.sender];\n\n\t\tif (amount > 0) {\n\n\t\t\tpendingReturn[msg.sender] = 0;\n\n\t\t\tif(!msg.sender.send(amount)) {\n\n\t\t\t\tpendingReturn[msg.sender] += amount;\n\t\t\t\treturn false;\n\t\t\t}\n\n\t\t}\n\n\t\treturn true;\n\t}\n\n\t//End of the auction\n\tfunction auctionEnd() public {\n\n\t\trequire(now >= auctionEnd);\n\t\trequire(!ended);\n\n\t\tended = true;\n\t\temit AuctionEnded(lowestBidder, lowestBid);\n\n\t\tbidder.transfer(lowestBid);\n\t}\n}\n\n\n\n\n\n\n\n\n\n\n\n\n\n\n\n\n\n\n\n\n\n\n\n\n",
  "sourcePath": "/Users/herambadash/sports_fund/contracts/auction.sol",
  "compiler": {
    "name": "solc",
    "version": "0.4.24+commit.e67f0147.Emscripten.clang"
  },
  "schemaVersion": "2.0.1",
  "updatedAt": "2018-10-02T11:56:20.918Z"
}