{
  "contractName": "organisation",
  "abi": [
    {
      "constant": true,
      "inputs": [],
      "name": "O_auction",
      "outputs": [
        {
          "name": "",
          "type": "address"
        }
      ],
      "payable": false,
      "stateMutability": "view",
      "type": "function"
    },
    {
      "constant": true,
      "inputs": [
        {
          "name": "",
          "type": "address"
        },
        {
          "name": "",
          "type": "uint256"
        }
      ],
      "name": "company",
      "outputs": [
        {
          "name": "",
          "type": "bool"
        }
      ],
      "payable": false,
      "stateMutability": "view",
      "type": "function"
    },
    {
      "constant": true,
      "inputs": [
        {
          "name": "",
          "type": "address"
        },
        {
          "name": "",
          "type": "uint256"
        }
      ],
      "name": "individual",
      "outputs": [
        {
          "name": "",
          "type": "bool"
        }
      ],
      "payable": false,
      "stateMutability": "view",
      "type": "function"
    },
    {
      "constant": true,
      "inputs": [
        {
          "name": "",
          "type": "address"
        }
      ],
      "name": "Transferred",
      "outputs": [
        {
          "name": "",
          "type": "bool"
        }
      ],
      "payable": false,
      "stateMutability": "view",
      "type": "function"
    },
    {
      "inputs": [
        {
          "name": "_auctionContract",
          "type": "address"
        }
      ],
      "payable": false,
      "stateMutability": "nonpayable",
      "type": "constructor"
    },
    {
      "anonymous": false,
      "inputs": [
        {
          "indexed": false,
          "name": "_requestor",
          "type": "address"
        },
        {
          "indexed": false,
          "name": "_UIN",
          "type": "uint256"
        }
      ],
      "name": "Request_accept",
      "type": "event"
    },
    {
      "anonymous": false,
      "inputs": [
        {
          "indexed": false,
          "name": "_requestor",
          "type": "address"
        },
        {
          "indexed": false,
          "name": "_UIN",
          "type": "uint256"
        }
      ],
      "name": "Funds_transfered",
      "type": "event"
    },
    {
      "anonymous": false,
      "inputs": [
        {
          "indexed": false,
          "name": "_from",
          "type": "address"
        },
        {
          "indexed": false,
          "name": "_value",
          "type": "uint256"
        }
      ],
      "name": "ether_received",
      "type": "event"
    },
    {
      "anonymous": false,
      "inputs": [
        {
          "indexed": false,
          "name": "_requestor",
          "type": "address"
        },
        {
          "indexed": false,
          "name": "_BIN",
          "type": "uint256"
        }
      ],
      "name": "bid_request",
      "type": "event"
    },
    {
      "constant": false,
      "inputs": [],
      "name": "accept_ether",
      "outputs": [],
      "payable": true,
      "stateMutability": "payable",
      "type": "function"
    },
    {
      "constant": false,
      "inputs": [
        {
          "name": "_val",
          "type": "uint256"
        }
      ],
      "name": "fund_value_setter",
      "outputs": [],
      "payable": false,
      "stateMutability": "nonpayable",
      "type": "function"
    },
    {
      "constant": false,
      "inputs": [
        {
          "name": "_UIN",
          "type": "uint256"
        }
      ],
      "name": "RegisterPlayer",
      "outputs": [
        {
          "name": "",
          "type": "bool"
        }
      ],
      "payable": false,
      "stateMutability": "nonpayable",
      "type": "function"
    },
    {
      "constant": false,
      "inputs": [
        {
          "name": "_BIN",
          "type": "uint256"
        }
      ],
      "name": "RegisterCompany",
      "outputs": [
        {
          "name": "",
          "type": "bool"
        }
      ],
      "payable": false,
      "stateMutability": "nonpayable",
      "type": "function"
    },
    {
      "constant": false,
      "inputs": [
        {
          "name": "_UIN",
          "type": "uint256"
        }
      ],
      "name": "request_for_funds",
      "outputs": [],
      "payable": false,
      "stateMutability": "nonpayable",
      "type": "function"
    },
    {
      "constant": false,
      "inputs": [
        {
          "name": "_val",
          "type": "uint256"
        }
      ],
      "name": "pass_value",
      "outputs": [],
      "payable": false,
      "stateMutability": "nonpayable",
      "type": "function"
    },
    {
      "constant": false,
      "inputs": [
        {
          "name": "_BIN",
          "type": "uint256"
        }
      ],
      "name": "bid_by_company",
      "outputs": [
        {
          "name": "",
          "type": "bool"
        }
      ],
      "payable": false,
      "stateMutability": "nonpayable",
      "type": "function"
    }
  ],
  "bytecode": "0x608060405234801561001057600080fd5b50604051602080610c2f83398101806040528101908080519060200190929190505050336000806101000a81548173ffffffffffffffffffffffffffffffffffffffff021916908373ffffffffffffffffffffffffffffffffffffffff16021790555080600260006101000a81548173ffffffffffffffffffffffffffffffffffffffff021916908373ffffffffffffffffffffffffffffffffffffffff16021790555050610b6b806100c46000396000f3006080604052600436106100af576000357c0100000000000000000000000000000000000000000000000000000000900463ffffffff16806305d2edfb146100b45780631b3893d7146100e157806325b4639c14610138578063680b15661461017d5780636a7e5c6a146101aa57806388a47cb61461020f5780638a3fb9b514610254578063be9fdd1814610299578063c7348aab146102fe578063d823a9c914610308578063fbe1bda514610363575b600080fd5b3480156100c057600080fd5b506100df60048036038101908080359060200190929190505050610390565b005b3480156100ed57600080fd5b506100f6610479565b604051808273ffffffffffffffffffffffffffffffffffffffff1673ffffffffffffffffffffffffffffffffffffffff16815260200191505060405180910390f35b34801561014457600080fd5b506101636004803603810190808035906020019092919050505061049f565b604051808215151515815260200191505060405180910390f35b34801561018957600080fd5b506101a860048036038101908080359060200190929190505050610513565b005b3480156101b657600080fd5b506101f5600480360381019080803573ffffffffffffffffffffffffffffffffffffffff16906020019092919080359060200190929190505050610578565b604051808215151515815260200191505060405180910390f35b34801561021b57600080fd5b5061023a600480360381019080803590602001909291905050506105a7565b604051808215151515815260200191505060405180910390f35b34801561026057600080fd5b5061027f6004803603810190808035906020019092919050505061076a565b604051808215151515815260200191505060405180910390f35b3480156102a557600080fd5b506102e4600480360381019080803573ffffffffffffffffffffffffffffffffffffffff169060200190929190803590602001909291905050506107de565b604051808215151515815260200191505060405180910390f35b61030661080d565b005b34801561031457600080fd5b50610349600480360381019080803573ffffffffffffffffffffffffffffffffffffffff16906020019092919050505061087a565b604051808215151515815260200191505060405180910390f35b34801561036f57600080fd5b5061038e6004803603810190808035906020019092919050505061089a565b005b60011515600460003373ffffffffffffffffffffffffffffffffffffffff1673ffffffffffffffffffffffffffffffffffffffff168152602001908152602001600020600083815260200190815260200160002060009054906101000a900460ff16151514151561040057600080fd5b7fe5566de3ee4b45e72b974b15e20cbf570be72845435e7647d227e63cfda40e513382604051808373ffffffffffffffffffffffffffffffffffffffff1673ffffffffffffffffffffffffffffffffffffffff1681526020018281526020019250505060405180910390a161047533826109a1565b5050565b600260009054906101000a900473ffffffffffffffffffffffffffffffffffffffff1681565b60006001600460003373ffffffffffffffffffffffffffffffffffffffff1673ffffffffffffffffffffffffffffffffffffffff168152602001908152602001600020600084815260200190815260200160002060006101000a81548160ff02191690831515021790555060019050919050565b6000809054906101000a900473ffffffffffffffffffffffffffffffffffffffff1673ffffffffffffffffffffffffffffffffffffffff163373ffffffffffffffffffffffffffffffffffffffff1614151561056e57600080fd5b8060018190555050565b60056020528160005260406000206020528060005260406000206000915091509054906101000a900460ff1681565b600060011515600560003373ffffffffffffffffffffffffffffffffffffffff1673ffffffffffffffffffffffffffffffffffffffff168152602001908152602001600020600084815260200190815260200160002060009054906101000a900460ff16151514151561061957600080fd5b7fe82413713e8a6b36b14c9fdb4239095ca74df7ef94989513187c274de39f448a3383604051808373ffffffffffffffffffffffffffffffffffffffff1673ffffffffffffffffffffffffffffffffffffffff1681526020018281526020019250505060405180910390a1600260009054906101000a900473ffffffffffffffffffffffffffffffffffffffff1673ffffffffffffffffffffffffffffffffffffffff1663dbbdf08342336040518363ffffffff167c0100000000000000000000000000000000000000000000000000000000028152600401808381526020018273ffffffffffffffffffffffffffffffffffffffff1673ffffffffffffffffffffffffffffffffffffffff16815260200192505050600060405180830381600087803b15801561074957600080fd5b505af115801561075d573d6000803e3d6000fd5b5050505060019050919050565b60006001600560003373ffffffffffffffffffffffffffffffffffffffff1673ffffffffffffffffffffffffffffffffffffffff168152602001908152602001600020600084815260200190815260200160002060006101000a81548160ff02191690831515021790555060019050919050565b60046020528160005260406000206020528060005260406000206000915091509054906101000a900460ff1681565b7f46ebbfbf91590a3df1019e575ce69d37bbd3c9713036cfb59a3b05a8ec52d53f3334604051808373ffffffffffffffffffffffffffffffffffffffff1673ffffffffffffffffffffffffffffffffffffffff1681526020018281526020019250505060405180910390a1565b60036020528060005260406000206000915054906101000a900460ff1681565b6000809054906101000a900473ffffffffffffffffffffffffffffffffffffffff1673ffffffffffffffffffffffffffffffffffffffff163373ffffffffffffffffffffffffffffffffffffffff161415156108f557600080fd5b600260009054906101000a900473ffffffffffffffffffffffffffffffffffffffff1673ffffffffffffffffffffffffffffffffffffffff16631bfc7662826040518263ffffffff167c010000000000000000000000000000000000000000000000000000000002815260040180828152602001915050600060405180830381600087803b15801561098657600080fd5b505af115801561099a573d6000803e3d6000fd5b5050505050565b6000801515600360008573ffffffffffffffffffffffffffffffffffffffff1673ffffffffffffffffffffffffffffffffffffffff16815260200190815260200160002060009054906101000a900460ff161515141515610a0157600080fd5b3073ffffffffffffffffffffffffffffffffffffffff163160015411151515610a2957600080fd5b6001600360008573ffffffffffffffffffffffffffffffffffffffff1673ffffffffffffffffffffffffffffffffffffffff16815260200190815260200160002060006101000a81548160ff0219169083151502179055508273ffffffffffffffffffffffffffffffffffffffff166108fc6001549081150290604051600060405180830381858888f19350505050158015610ac9573d6000803e3d6000fd5b507f8c10f73aebc4ba8fe6b85928c148bf6c2b03615037526d02139a63949e34ef2b8383604051808373ffffffffffffffffffffffffffffffffffffffff1673ffffffffffffffffffffffffffffffffffffffff1681526020018281526020019250505060405180910390a160019050929150505600a165627a7a72305820e7d5a57bef84569b947f31d1c1313556eaed43254c663875bee276d9129e450b0029",
  "source": "pragma solidity ^0.4.23;\n\nimport \"./auction.sol\";\n\ncontract organisation {\n\n\taddress owner; \n\n\tuint256 yearly_fund_player;\n\n\tauction public O_auction;\n\n\t//sets the owner of the contract\n\tconstructor(auction _auctionContract) public {\n\n\t\towner = msg.sender;\n\n\t\tO_auction = _auctionContract;\n\t}\n\n\t//sets the owner of the contract\n\tmodifier centralAuthority() {\n\n\t\trequire(msg.sender == owner);\n\n\t\t_;\n\t}\n\n\t//maps the addresses such that transfer request has been acknowledged and fund already transferred \n\tmapping(address => bool) public Transferred;\n\n\t//maps the address of the player to Unique identification number(UIN) and if the player is already registered\n\tmapping(address => mapping(uint => bool)) public individual;\n\n\t//maps the address of a company to the buisness identification number(BIN) and if the company is already registered\n\tmapping(address => mapping(uint => bool)) public company;\n\n\tevent Request_accept(address _requestor, uint256 _UIN);\n\n\tevent Funds_transfered(address _requestor, uint256 _UIN);\n\n\tevent ether_received(address _from, uint256 _value);\n\n\tevent bid_request(address _requestor, uint256 _BIN);\n\n\tfunction accept_ether() public payable {\n\n\t\temit ether_received(msg.sender, msg.value);\n\t}\n\n\tfunction fund_value_setter(uint256 _val) public {\n\n\t\trequire(msg.sender == owner);\n\n\t\tyearly_fund_player = _val;\n\t}\n\n\t//Register the player\n\tfunction RegisterPlayer(uint256 _UIN) public returns (bool) {\n\n\t\tindividual[msg.sender][_UIN] = true;\n\n\t\treturn true;\n\t}  \n\n\t//Register the company\n\tfunction RegisterCompany(uint256 _BIN) public returns (bool) {\n\n\t\tcompany[msg.sender][_BIN] = true;\n\n\t\treturn true;\n\t}\n\n\t//Request made by the player to get funds\n\tfunction request_for_funds(uint256 _UIN) public {\n\n\t\trequire(individual[msg.sender][_UIN] == true);\t\t\n\n\t\temit Request_accept(msg.sender, _UIN);\n\n\t\ttransfer(msg.sender, _UIN);\n\t}\n\n\t//transfer of funds from the contract to the player\n\tfunction transfer(address _to, uint256 _UIN) private returns (bool) {\n\n\t\trequire(Transferred[_to] == false);\n\n\t\trequire(yearly_fund_player <= address(this).balance);\n\n\t\tTransferred[_to] = true;\n\n\t\t_to.transfer(yearly_fund_player);\n\n\t\temit Funds_transfered(_to, _UIN);\n\n\t\treturn true;\n\t}\n\n\tfunction pass_value(uint256 _val) public {\n\n\t\trequire(msg.sender == owner);\n\n\t\tO_auction.set_value_of_project(_val);\n\t}\n\n\t//bid by a company for infrastucture development\n\t//the lowest bid by a company will be the winner\n\t//it is a blind auction\n\tfunction bid_by_company(uint256 _BIN) public returns (bool) {\n\n\t\trequire(company[msg.sender][_BIN] == true);\n\n\t\temit bid_request(msg.sender, _BIN);\n\n\t\tO_auction.register(now, msg.sender);\n\n\t\treturn true;\n\t}\n\t\n}\n\n\n\n\n\n\n\n\n\n\n\n\n\n\n\n\n\n\n\n",
  "sourcePath": "/Users/herambadash/sports_fund/contracts/organisation.sol",
  "compiler": {
    "name": "solc",
    "version": "0.4.24+commit.e67f0147.Emscripten.clang"
  },
  "schemaVersion": "2.0.1",
  "updatedAt": "2018-10-02T11:56:20.927Z"
}